:100000000C942A000C9447000C9447000C94470071
:100010000C9447000C9447000C9447000C94470044
:100020000C9447000C9447000C9447000C94470034
:100030000C9447000C945A040C9447000C9447000D
:100040000C9447000C9447000C9447000C94470014
:100050000C94470011241FBECFE5D8E0DEBFCDBF12
:1000600012E0A0E6B0E0E6E3FFE002C005900D92EA
:10007000AC35B107D9F714E0ACE5B2E001C01D9290
:10008000A03EB107E1F70E941A050C9499070C9461
:100090000000949A0000000094980895FC012081CB
:1000A000203261F420E030E02F5F3F4F820F931F3A
:1000B000FC01E20FF31F40814032B1F3089583B792
:1000C000826883BF12BE089513BE089584EF91E045
:1000D000E6EDF2E0DF019C011D9221503040E1F796
:1000E00010925D0210925C020895DC01CB01880F32
:1000F000991FAA1FBB1F880F991FAA1FBB1F9C0116
:10010000AD01220F331F441F551F220F331F441F01
:10011000551F60E072E18AE790E00E94D806CA01AC
:10012000B90161507040804090400E9410060E94CA
:100130009E06262F462F572F682F792F29B9452F36
:10014000562F672F772740BD8AB188618AB980B55D
:10015000866880BD08955F9BFECF8CB108955D9B3E
:10016000FECF8CB987E795E00197F1F700C000005A
:100170000895CF93DF93EC018881882331F0219695
:100180000E94AF0089918823D9F7DF91CF9108951C
:10019000CF93DF93EC018881882331F021960E9470
:1001A000AF0089918823D9F7DF91CF91089517BACD
:1001B000959A9698C799FECF0E9449008FEF87BB0A
:1001C0000895CF93C82F85E88A95F1F700000E9423
:1001D000D700C8BB959896980E94490018BACF914D
:1001E00008958158E62FF0E0EE0FFF1FEF5AFD4F04
:1001F0009081890F0E94E1000895CF93C82F85E870
:100200008A95F1F700000E94D700C8BB9598969A8E
:100210000E94490018BACF910895CF93DF93EC0163
:100220008881882331F021960E94FD0089918823DE
:10023000D9F7DF91CF910895CF93DF93EA0190E052
:1002400070E00E94F100CE010E940D01DF91CF917C
:1002500008958C9A8D9A8E9A8FE39CE90197F1F715
:1002600000C0000081E00E94E1008FE99FE001975B
:10027000F1F700C0000088E30E94E10095E89A953C
:10028000F1F700008EE00E94E10085E88A95F1F721
:10029000000008958F929F92AF92BF92CF92DF920B
:1002A000EF92FF920F931F93CF93DF93CDB7DEB7FB
:1002B000D82EC62ECA01022F8DB69EB62DB73EB7D8
:1002C000201B31090FB6F8943EBF0FBE2DBF6DB78E
:1002D0007EB76F5F7F4FB62EA72E4AE050E00E9498
:1002E0004C07002369F010E00F2EF0E6EF2EF0E04F
:1002F000FF2EF02DC7010E940D011F5F1017D1F7CF
:100300008D2D6C2D4B2D5A2D0E941C010FB6F8948B
:100310009EBE0FBE8DBEDF91CF911F910F91FF90BA
:10032000EF90DF90CF90BF90AF909F908F90089507
:1003300081E00E94E1008FE99FE00197F1F700C0A2
:1003400000000895EF92FF920F931F93CF93E82F31
:10035000F92FDF010D900020E9F7AD014150504029
:100360004E1B5F0BE62FF72FDF010D900020E9F702
:1003700011977D01EE1AFF0A4E155F05F4F0141671
:100380001506D4F4A82FB92F80E090E020E030E0EB
:1003900000E010E0CD91FB01E20FF31FE081CE17EA
:1003A00031F42F5F3F4FE216F30611F408C09801B5
:1003B00001964817590771F703C080E001C081E03A
:1003C000CF911F910F91FF90EF90089586ED92E0ED
:1003D00062E670E00E94A2018130D1F086ED92E0E9
:1003E00065E670E00E94A2018130A1F086ED92E006
:1003F0006FE670E00E94A201813071F086ED92E01C
:1004000065E770E00E94A201813041F484E0089524
:1004100081E0089583E0089582E0089580E00895E2
:10042000AF92BF92CF92DF92EF92FF920F93CF9352
:10043000DF93C42F590167010E9432077C01EC0E43
:10044000F11CC701B5010E943207EC01C00FD11D9C
:10045000CE19D0E0C601B701AE010E942307CC0D32
:10046000DD1D1882DF91CF910F91FF90EF90DF900B
:10047000CF90BF90AF9008958F929F92AF92BF920E
:10048000CF92DF92EF92FF920F93CF93DF930F2ED5
:10049000F6E68F2EF0E09F2EF02DF401099587E708
:1004A00090E00E94B9008FEF90E7A2E08150904069
:1004B000A040E1F700C000000E94980181E061E0E7
:1004C00042E850E00E941C01C6EDD2E00F2EFDE88C
:1004D000CF2EF0E0DF2EF02D0F2EFAECAF2EF4E051
:1004E000BF2EF02DCE0166E870E046E0960100E0F8
:1004F00075010E94100286E061E0A5010E941C01C6
:100500000F2EFEE5AF2EF2E0BF2EF02DCE016FE8EC
:1005100070E047E0960175010E94100281E062E000
:10052000A5010E941C018FEF97EAA1E6815090403F
:10053000A040E1F700C000000E94980181E061E066
:1005400047E950E00E941C010F2EF4E7AF2EF2E0C5
:10055000BF2EF02DCE016DE970E047E096017501E8
:100560000E94100286E061E0A5010E941C010F2E8E
:10057000F8EBAF2EF2E0BF2EF02DCE0165EA70E071
:1005800048E0960175010E94100281E062E0A50139
:100590000E941C01F4010995DF91CF910F91FF900A
:1005A000EF90DF90CF90BF90AF909F908F90089585
:1005B0008EEA90E00E94B9008FEF9BE7A2E981509C
:1005C0009040A040E1F700C0000008950E9466003E
:1005D00087EB90E00E94B9008FE39CE90197F1F767
:1005E00000C0000008950E94660085EC90E00E9423
:1005F000B9008FE39CE90197F1F700C0000008956E
:100600000E94660082EF90E00E94B9008FE39CE9AF
:100610000197F1F700C0000008950E94660088E08D
:1006200091E00E94B9008FE39CE90197F1F700C0C7
:10063000000008950E94660086E191E00E94B900E2
:100640008FE39CE90197F1F700C0000008956F92D5
:100650007F928F929F92AF92BF92CF92DF92EF9252
:10066000FF920F931F93CF93DF93CDB7DEB76C014B
:100670004B016DB67EB68DB79EB78C199D090FB62E
:10068000F8949EBF0FBE8DBFADB6BEB60894A11C38
:10069000B11C86ED92E061E271E045E027E231E0D5
:1006A00000E00F2EF2E7EF2EF2E0FF2EF02D0E9479
:1006B00010021A2D0B2DC6016A2D7B2D4AE050E049
:1006C0000E944C07D401E9E2F1E08CE001900D9228
:1006D0008150E1F7C4016CED74E00E941807E82D29
:1006E000F92DDF010D900020E9F71197AE1BBF0B2C
:1006F000A80DB91D8CE290E08D939C93C401612FED
:10070000702F0E941807812F902F0E944E000FB665
:10071000F8947EBE0FBE6DBEDF91CF911F910F91F9
:10072000FF90EF90DF90CF90BF90AF909F908F9011
:100730007F906F900895CF93DF93D82FC92FE82F24
:10074000F92FA5E3B1E08DE00D9001928150E1F722
:100750008D2F9C2F62E772E00E9418078D2F9C2F2F
:100760000E94B90082E491E00E94B900DF91CF912C
:100770000895CF93DF9384EF91E0E6EDF2E0DF019F
:100780009C011D9221503040E1F781E061E045E499
:1007900051E00E941C01C7E5D1E081E062E0AE01BA
:1007A0000E941C010E94D8028FEF99E6A8E18150B7
:1007B0009040A040E1F700C000000E94980181E055
:1007C00061E045E651E00E941C0181E062E0AE017B
:1007D0000E941C010E94E6028FEF99E6A8E1815079
:1007E0009040A040E1F700C000000E94980181E025
:1007F00061E044E751E00E941C01C6E8D1E081E0DD
:1008000062E0AE010E941C010E940D030E9498014B
:1008100081E061E044E951E00E941C0181E062E076
:10082000AE010E941C010E9400038FEF93EDA0E334
:1008300081509040A040E1F700C000000E943C02BF
:100840008FEF99E6A8E181509040A040E1F700C009
:1008500000000E9498010E946600DF91CF910895E8
:10086000EF92FF920F937C0186ED92E064EA71E0D3
:1008700041E020E630E000E00E9410020F91FF907E
:10088000EF900895E82FF92FDF010D900020E9F790
:10089000CD0101978E1B90E008950E94FA060895FD
:1008A00086ED92E066EA71E00E94A201813009F0D3
:1008B000FFCF08951F920F920FB60F9211242F931E
:1008C0008F939F93EF93FF938FB78F778FBFE091B5
:1008D0005C02F0915D028CB1EA52FD4F8083809101
:1008E0005C0290915D02019690935D0280935C02A0
:1008F0008CB18D3039F4E0915C02F0915D02EA52E6
:10090000FD4F108280915C0290915D0221E0843F56
:10091000920721F410925D0210925C028FB78068FA
:100920008FBFFF91EF919F918F912F910F900FBEED
:100930000F901F901895A39AA2980895AB988AE1FA
:100940008A95F1F700C0AB9A8AE18A95F1F700C069
:10095000AB989A9908C09A9BFECF0E945F009A9923
:10096000FECF0E94640062B770E080E090E00E94D9
:1009700012062EEA37E44BE652E40E947C050E9400
:10098000E4050895CF93DF9386ED92E066EA71E087
:100990000E94A2018130F1F5CCECD2E0CE010E94A0
:1009A0003004CE010E944D04282F392F3093DB04F0
:1009B0002093DA048091DA049091DB048930910568
:1009C0008CF48091DA049091DB042FEF883F92073A
:1009D0004CF08091DA049091DB0490938402809330
:1009E000830216C08091DA049091DB048D31910569
:1009F0007CF48091DA049091DB048D30910544F011
:100A00008091DA049091DB049093DF048093DE04FC
:100A10000E946600DF91CF9108958D9A8FB5826A0A
:100A20008FBD8EB58A618EBD8C9A8FE19EE497BD95
:100A300086BD089584B3836084BB8AB383608ABB18
:100A400060E07BE480E090E00E947500579A789423
:100A50000E940D050E94B903C0E4DFE112E00F2EF1
:100A6000F8E8EF2EF3E1FF2EF02D01E00E94C20422
:100A70008091830290918402833091054CF0D9BD1E
:100A8000C8BDDBBDCABDA898D89815BB1BBBEECFAF
:100A900080918302909184022FEF8E3F92074CF455
:100AA000D9BDC8BDDBBDCABD05BB0BBBA998D998D4
:100AB000DDCF8091DE049091DF04883191054CF008
:100AC000F9BCE8BCFBBCEABCA898A998D9980BBBB8
:100AD000CDCF8091DE049091DF04813191054CF4FB
:100AE000F9BCE8BCFBBCEABCD898D998A99805BB6E
:100AF000BDCF15BA1BBABACF0CD0E6C0DED040F0DD
:100B0000D5D030F021F45F3F19F0C7C0511110C1AA
:100B1000CAC0EBD098F39923C9F35523B1F3951BC1
:100B2000550BBB27AA2762177307840738F09F5F0E
:100B30005F4F220F331F441FAA1FA9F333D00E2E7D
:100B40003AF0E0E830D091505040E695001CCAF7EA
:100B500029D0FE2F27D0660F771F881FBB1F2617AF
:100B600037074807AB07B0E809F0BB0B802DBF0182
:100B7000FF2793585F4F2AF09E3F510568F08DC0C4
:100B8000D7C05F3FECF3983EDCF386957795679589
:100B9000B795F7959F5FC9F7880F911D9695879533
:100BA00097F90895E1E0660F771F881FBB1F621752
:100BB00073078407BA0720F0621B730B840BBA0B10
:100BC000EE1F88F7E095089598D088F09F5790F031
:100BD000B92F9927B751A0F0D1F0660F771F881F62
:100BE000991F1AF0BA95C9F712C0B13081F09FD0A1
:100BF000B1E008959CC0672F782F8827B85F39F03F
:100C0000B93FCCF3869577956795B395D9F73EF4C0
:100C100090958095709561957F4F8F4F9F4F089568
:100C2000E89409C097FB3EF4909580957095619586
:100C30007F4F8F4F9F4F9923A9F0F92F96E9BB273C
:100C40009395F695879577956795B795F111F8CFB8
:100C5000FAF4BB0F11F460FF1BC06F5F7F4F8F4F23
:100C60009F4F16C0882311F096E911C0772321F019
:100C70009EE8872F762F05C0662371F096E8862FB1
:100C800070E060E02AF09A95660F771F881FDAF708
:100C9000880F9695879597F9089597F99F6780E84B
:100CA00070E060E008959FEF80EC089500240A94BE
:100CB0001616170618060906089500240A94121637
:100CC0001306140605060895092E0394000C11F46A
:100CD000882352F0BB0F40F4BF2B11F460FF04C017
:100CE0006F5F7F4F8F4F9F4F089557FD9058440F70
:100CF000551F59F05F3F71F04795880F97FB991F7B
:100D000061F09F3F79F08795089512161306140637
:100D1000551FF2CF4695F1DF08C0161617061806C4
:100D2000991FF1CF86957105610508940895E8949F
:100D3000BB2766277727CB0197F90895DEDFA8F157
:100D40009E57A8F1985160F039F1983070F5092E4E
:100D50009927660F771F881F991F0A94D1F71CC027
:100D6000BB27993F4CF4B111B1E0B62B672F782F18
:100D70008827985FB1F708C0869577956795B795EE
:100D800008F4B1609395C1F7BB0F30F411F460FF24
:100D900003C06F5F7F4F8F4F3EF4909580957095A5
:100DA00061957F4F8F4F9F4F08956894C1CFBFCFFC
:100DB000A1E21A2EAA1BBB1BFD010DC0AA1FBB1F5F
:100DC000EE1FFF1FA217B307E407F50720F0A21BD1
:100DD000B30BE40BF50B661F771F881F991F1A943E
:100DE00069F760957095809590959B01AC01BD0168
:100DF000CF010895FC0188279927E894219120329A
:100E0000E9F3293010F02E30C8F32B3241F02D32A7
:100E100039F4689404C00E946D07820F911D2191DE
:100E200020532A30C0F31EF4909581959F4F08956A
:100E3000FB01DC010D900020E9F7119701900D9264
:100E40000020E1F70895FB01DC014150504048F0DB
:100E500001900D920020C9F701C01D9241505040F1
:100E6000E0F70895FB0151915523A9F0BF01DC0182
:100E70004D9145174111E1F759F4CD010190002042
:100E800049F04D9140154111C9F3FB014111EFCFDC
:100E900081E090E001970895FB019F01E8944230C2
:100EA000C4F04532B4F44A3029F497FB1EF490950F
:100EB00081959F4F642F77270E948507805D8A3335
:100EC0000CF0895D8193CB010097A1F716F45DE2E8
:100ED00051931082C9010C9475077AE0979F902D69
:100EE000879F802D910D11240895DC01FC01672F4F
:100EF00071917723E1F7329704C07C916D937083F1
:100F00006291AE17BF07C8F30895AA1BBB1B51E13E
:100F100007C0AA1FBB1FA617B70710F0A61BB70B69
:100F2000881F991F5A95A9F780959095BC01CD010E
:060F30000895F894FFCFC4
:100F360020004F4B006E6F206368616E676500721C
:100F460065616479003E0041542B43494653520D76
:100F56000A0041503A00415049502C2200220041DB
:100F6600504D41432C22005354413A2000535441E2
:100F760049502C22005354414D41432C22004154E8
:100F86002B5253540D0A0041542B43574D4F4445A1
:100F96003D330D0A0041542B43574A41503D2254DC
:100FA600452D4461746120322E3447487A222C2222
:100FB60044656C6C696E737069726F6E3138220DA0
:100FC6000A0041542B4349505345525645523D3130
:100FD6002C363030300D0A0041542B4349504D55C4
:100FE600583D310D0A0041542B43575141500D0ACB
:100FF600002B4950442C002C0041542B434950539C
:10100600454E443D0041542B434950434C4F5345B4
:101016003D000D0A0052657374617274696E672033
:10102600576966692E2E00506C656173652057619D
:1010360069742E2E0053657474696E67204D6F6453
:10104600652E2E0053657474696E6720436F6E6556
:101056006374696F6E00506C6561736520776169B2
:10106600742E2E00436F6E66696775726520544351
:10107600502E2E003A002B495044003630303000B6
:1010860044656C6C696E737069726F6E31380054AA
:10109600452D4461746120322E3447487A0004039A
:1010A600020141542B43494653520041542B4349B4
:1010B600505345525645523D0041542B4349504DDD
:1010C60055583D0041542B434950434C4F53453DE1
:1010D6000041542B43495053544152543D0041540E
:1010E6002B4349505354415455530041542B4357B5
:1010F6005341503D0041542B4357514150004154F8
:101106002B43574C41500041542B43574A41503DC5
:101116000041542B43574D4F44453D0041542B52FB
:0C1126005354000000400014005400006E
:00000001FF
