S01A000050726F6A656374315F5472616E6D746572732E73726563E3
S11300000C942A000C9447000C9447000C9447006D
S11300100C9447000C9447000C9447000C94470040
S11300200C9447000C9447000C9447000C94470030
S11300300C9447000C9468040C9447000C944700FB
S11300400C9447000C9447000C9447000C94470010
S11300500C94470011241FBECFE5D8E0DEBFCDBF0E
S113006012E0A0E6B0E0EEE3FFE002C005900D92DE
S1130070AA36B107D9F714E0AAE6B2E001C01D928E
S1130080AE3EB107E1F70E941F060C949D070C9445
S11300900000949A0000000094980895FC012081C7
S11300A0203261F420E030E02F5F3F4F820F931F36
S11300B0FC01E20FF31F40814032B1F3089584EF55
S11300C091E0E6ECF2E0DF019C011D92215030400A
S11300D0E1F710926B0210926A020895DC01CB01E1
S11300E0880F991FAA1FBB1F880F991FAA1FBB1F28
S11300F09C01AD01220F331F441F551F220F331FD4
S1130100441F551F60E072E18AE790E00E940207F5
S1130110CA01B90161507040804090400E944F066E
S11301200E948C06262F462F572F682F792F29B926
S1130130452F562F672F772740BD8AB188618AB92A
S113014080B5866880BD08955F9BFECF8CB108950D
S11301505D9BFECF8CB987E795E00197F1F700C06E
S113016000000895CF93DF93EC018881882331F058
S113017021960E94A80089918823D9F7DF91CF9115
S1130180089580E690E00E94B2008FE39CE9019715
S1130190F1F700C000000895CF93DF93EC0188814C
S11301A0882331F021960E94A80089918823D9F7E9
S11301B0DF91CF91089517BA959A9698C799FECF73
S11301C00E9449008FEF87BB0895CF93C82F85E81D
S11301D08A95F1F700000E94DB00C8BB95989698B9
S11301E00E94490018BACF9108958158E62FF0E093
S11301F0EE0FFF1FE15AFD4F9081890F0E94E50029
S11302000895CF93C82F85E88A95F1F700000E94DE
S1130210DB00C8BB9598969A0E94490018BACF9102
S11302200895CF93DF93EC018881882331F02196E0
S11302300E94010189918823D9F7DF91CF91089514
S1130240CF93DF93EA0190E070E00E94F500CE01C5
S11302500E941101DF91CF9108958C9A8D9A8E9A04
S11302608FE39CE90197F1F700C0000081E00E9450
S1130270E5008FE99FE00197F1F700C0000088E3F3
S11302800E94E50095E89A95F1F700008EE00E943F
S1130290E50085E88A95F1F7000008958F929F9212
S11302A0AF92BF92CF92DF92EF92FF920F931F9380
S11302B0CF93DF93CDB7DEB7D82EC62ECA01022F57
S11302C08DB69EB62DB73EB7201B31090FB6F894F4
S11302D03EBF0FBE2DBF6DB77EB76F5F7F4FB62E8B
S11302E0A72E4AE050E00E946C07002369F010E05A
S11302F00F2EF7E8EF2EF0E0FF2EF02DC7010E943D
S113030011011F5F1017D1F78D2D6C2D4B2D5A2D18
S11303100E9420010FB6F8949EBE0FBE8DBEDF91E1
S1130320CF911F910F91FF90EF90DF90CF90BF90EE
S1130330AF909F908F90089581E00E94E5008FE92F
S11303409FE00197F1F700C00000089586B1866828
S113035086B93E9A089597B18770907E982B97B985
S1130360369A349BFECF349A84B195B10895EF92B6
S1130370FF920F931F93CF93E82FF92FDF010D9076
S11303800020E9F7AD01415050404E1B5F0BE62FB2
S1130390F72FDF010D900020E9F711977D01EE1A88
S11303A0FF0A4E155F05F4F014161506D4F4A82FB1
S11303B0B92F80E090E020E030E000E010E0CD9143
S11303C0FB01E20FF31FE081CE1731F42F5F3F4FA3
S11303D0E216F30611F408C098010196481759076C
S11303E071F703C080E001C081E0CF911F910F91AC
S11303F0FF90EF90089586EC92E069E870E00E9427
S1130400B7018130D1F086EC92E06CE870E00E9494
S1130410B7018130A1F086EC92E066E970E00E94B9
S1130420B701813071F086EC92E06CE970E00E94D3
S1130430B701813041F484E0089581E0089583E0B8
S1130440089582E0089580E00895AF92BF92CF921C
S1130450DF92EF92FF920F93CF93DF93C42F590152
S113046067010E9452077C01EC0EF11CC701B50123
S11304700E945207EC01C00FD11DCE19D0E0C60175
S1130480B701AE010E944307CC0DDD1D1882DF9138
S1130490CF910F91FF90EF90DF90CF90BF90AF90EE
S11304A008958F929F92AF92BF92CF92DF92EF9274
S11304B0FF920F93CF93DF930F2EFFE58F2EF0E083
S11304C09F2EF02DF40109958EE990E00E94B20070
S11304D08FEF90E7A2E081509040A040E1F700C088
S11304E000000E949C0181E061E049EA50E00E9422
S11304F02001C6ECD2E00F2EF4EBCF2EF0E0DF2E7D
S1130500F02D0F2EFCEBAF2EF4E0BF2EF02DCE011C
S11305106DEA70E046E0960100E075010E94250254
S113052086E061E0A5010E9420010F2EF1E7AF2EC5
S1130530F2E0BF2EF02DCE0166EB70E047E09601AD
S113054075010E94250281E062E0A5010E9420015C
S11305508FEF97EAA1E681509040A040E1F700C0F8
S113056000000E949C0181E061E04EEB50E00E949B
S113057020010F2EF8E8AF2EF2E0BF2EF02DCE01B1
S113058064EC70E047E0960175010E94250286E064
S113059061E0A5010E9420010F2EF9E9AF2EF2E0DF
S11305A0BF2EF02DCE016CEC70E048E09601750191
S11305B00E94250281E062E0A5010E942001F4016D
S11305C00995DF91CF910F91FF90EF90DF90CF903D
S11305D0BF90AF909F908F90089585ED90E00E941A
S11305E0B2008FEF9BE7A2E981509040A040E1F771
S11305F000C0000008950E945F008EED90E00E940C
S1130600B2008FE39CE90197F1F700C00000089560
S11306100E945F008CEE90E00E94B2008FE39CE9A0
S11306200197F1F700C0000008950E945F0089E17E
S113063091E00E94B2008FE39CE90197F1F700C0BA
S1130640000008950E945F0087E291E00E94B200DA
S11306508FE39CE90197F1F700C000000895CF9261
S1130660DF92EF92FF920F931F93CF93DF93CDB757
S1130670DEB7162F072FCDB6DEB62DB73EB7281B33
S1130680390B0FB6F8943EBF0FBE2DBF6DB77EB7C2
S11306906F5F7F4FF62EE72E4AE050E00E946C0712
S11306A0E12FF02FA2E3B1E08CE00D900192815094
S11306B0E1F7812F902F6F2D7E2D0E9438078F2D0B
S11306C09E2D0E944E000FB6F894DEBE0FBECDBE26
S11306D0DF91CF911F910F91FF90EF90DF90CF901A
S11306E008958EE391E00E94B2000895CF93DF93C2
S11306F084EF91E0E6ECF2E0DF019C011D922150D1
S11307003040E1F781E061E04CE451E00E942001D7
S1130710CEE5D1E081E062E0AE010E9420010E94BA
S1130720ED028FEF99E6A8E181509040A040E1F7F7
S113073000C000000E949C0181E061E04CE651E0B1
S11307400E94200181E062E0AE010E9420010E942B
S1130750FB020E94FB01813009F03FC08FEF99E654
S1130760A8E181509040A040E1F700C000000E9441
S11307709C0181E061E04BE751E00E94200181E0AF
S113078062E04DE851E00E9420010E9415030E949E
S1130790FB01813009F50E94C1008FEF99EFA0E0C1
S11307A081509040A040E1F700C000000E945F002B
S11307B00E945F000E9451028FEF99E6A8E18150E8
S11307C09040A040E1F700C000000E949C010E94FC
S11307D05F00DF91CF910895FFCFFFCFEF92FF929B
S11307E00F937C0186EC92E06BE971E041E027E82D
S11307F030E000E00E9425020F91FF90EF900895F1
S1130800E82FF92FDF010D900020E9F7CD010197C2
S11308108E1B90E00895CF93DF93CCECD4E099271E
S113082087FD9095BE014AE050E00E946C07FE01EE
S113083001900020E9F78E2F8C1B8F5F90E069EE0A
S113084074E04AE050E00E946C078DE991E00E9458
S1130850B2008FE39CE90197F1F700C000000E9409
S11308605F00CE010E94B2008CEA91E00E94B200C7
S11308708FE295E70197F1F700C000000E945F0046
S1130880DF91CF910895CF93C82F8FEA91E00E9412
S1130890B2008FE798E3A1E081509040A040E1F7D7
S11308A000C000000E945F008C2F0E94A8008CEA08
S11308B091E00E94B2008FE798E3A1E0815090405C
S11308C0A040E1F700C000000E945F00CF910895AE
S11308D01F920F920FB60F9211242F938F939F9311
S11308E0EF93FF938FB78F778FBFE0916A02F091F8
S11308F06B028CB1EA53FD4F808380916A02909120
S11309006B02019690936B0280936A028CB18D30D6
S113091039F4E0916A02F0916B02EA53FD4F1082C0
S113092080916A0290916B0221E0843F920721F446
S113093010926B0210926A028FB780688FBFFF918A
S1130940EF919F918F912F910F900FBE0F901F9059
S11309501895882341F0EFECF7E03197F1F700C0E8
S113096000008150C1F7089511B883B982E082B9BB
S113097084E086BF089584EA86BF06B607FEFDCFED
S1130980089584E986BF089583B984E886BF06B6CE
S113099007FEFDCF089584EC86BF06B607FEFDCFA3
S11309A083B1089584E886BF06B607FEFDCF83B100
S11309B0089581B1887F0895CF93C82F0E94D904E8
S11309C08C1759F0D89A8FEF94E3ACE081509040A3
S11309D0A040E1F700C00000D898CF910895CF93CC
S11309E0C62F0E94B4040E94BB0488E00E94DC0469
S11309F080ED0E94C40489E10E94C40488E20E943C
S1130A00DC0487E00E94C40488E20E94DC040E94A3
S1130A10C1040E94BB0488E00E94DC0480ED0E94B3
S1130A20C40488E10E94DC048BE60E94C40488E2CA
S1130A300E94DC0481E00E94C40488E20E94DC0479
S1130A400E94C1040E94BB0488E00E94DC0480ED83
S1130A500E94C40488E10E94DC048AE10E94C40468
S1130A6088E20E94DC0480E00E94C40488E20E94C0
S1130A70DC040E94C1040E94BB0488E00E94DC04E0
S1130A8080ED0E94C40488E10E94DC048CE10E9491
S1130A90C40488E20E94DC04C23021F480E00E9495
S1130AA0C4040CC0C43021F488E00E94C4040BC008
S1130AB0C83021F480E10E94C40405C0C03119F497
S1130AC088E10E94C40488E20E94DC040E94C104FC
S1130AD00E94BB0488E00E94DC0480ED0E94C404F0
S1130AE088E10E94DC048BE10E94C40488E20E9435
S1130AF0DC0488E10E94C40488E20E94DC040E94B1
S1130B00C1040E94BB0488E00E94DC0480ED0E94C2
S1130B10C40488E10E94DC0488E30E94C40488E2DF
S1130B200E94DC0481E00E94C40488E20E94DC0488
S1130B300E94C104CF910895CF930E94BB0488E022
S1130B400E94DC0480ED0E94C40488E10E94DC045D
S1130B508BE30E94C40488E20E94DC040E94BB046C
S1130B6080E10E94DC0481ED0E94C40480E40E94C0
S1130B70DC040E94CB04C82F0E94CB043C2F20E04D
S1130B8090E0282B392B3093E4042093E3040E9453
S1130B90CB04C82F0E94CB043C2F20E090E0282BEC
S1130BA0392B3093B0022093AF020E94CB04C82F9C
S1130BB00E94CB043C2F20E090E0282B392B30936B
S1130BC0E8042093E7040E94CB04C82F0E94CB04BE
S1130BD03C2F20E090E0282B392B3093AE02209359
S1130BE0AD020E94CB04C82F0E94CB043C2F20E00E
S1130BF090E0282B392B30936E0220936D020E94D3
S1130C00CB04C82F0E94CB043C2F20E090E0282B7B
S1130C10392B3093BB042093BA040E94CB04C82F11
S1130C200E94D2043C2F20E090E0282B392B3093F3
S1130C30EC042093EB040E94C104CF91089582E058
S1130C4064E00E94EF0460E07BE480E090E00E94B6
S1130C506E00579A78940E942D010E947603C8EE84
S1130C60D3E00E949C058091E3049091E404BE01CA
S1130C700E94EF066093ED048091AF029091B00260
S1130C80BE010E94EF06609397028091ED048C5E92
S1130C900E940B04809197020E940B04E2CFE89417
S1130CA009C097FB3EF490958095709561957F4FB0
S1130CB08F4F9F4F9923A9F0F92F96E9BB2793955E
S1130CC0F695879577956795B795F111F8CFFAF46E
S1130CD0BB0F11F460FF1BC06F5F7F4F8F4F9F4F9F
S1130CE016C0882311F096E911C0772321F09EE8FD
S1130CF0872F762F05C0662371F096E8862F70E063
S1130D0060E02AF09A95660F771F881FDAF7880F3C
S1130D109695879597F9089541D0A8F19E57A8F123
S1130D20985160F039F1983070F5092E9927660FC3
S1130D30771F881F991F0A94D1F71CC0BB27993FBE
S1130D404CF4B111B1E0B62B672F782F8827985F48
S1130D50B1F708C0869577956795B79508F4B160A3
S1130D609395C1F7BB0F30F411F460FF03C06F5FBC
S1130D707F4F8F4F3EF490958095709561957F4F8E
S1130D808F4F9F4F0895689424C022C057FD9058F8
S1130D90440F551F59F05F3F71F04795880F97FB3B
S1130DA0991F61F09F3F79F08795089512161306F5
S1130DB01406551FF2CF4695F1DF08C01616170624
S1130DC01806991FF1CF8695710561050894089559
S1130DD0E894BB2766277727CB0197F9089597FBFB
S1130DE0092E07260AD077FD04D02ED006D0002085
S1130DF01AF4709561957F4F0895F6F79095819553
S1130E009F4F0895A1E21A2EAA1BBB1BFD010DC022
S1130E10AA1FBB1FEE1FFF1FA217B307E407F507A6
S1130E2020F0A21BB30BE40BF50B661F771F881F82
S1130E30991F1A9469F760957095809590959B0118
S1130E40AC01BD01CF010895AA1BBB1B51E107C032
S1130E50AA1FBB1FA617B70710F0A61BB70B881F46
S1130E60991F5A95A9F780959095BC01CD010895D5
S1130E70FB01DC010D900020E9F7119701900D9220
S1130E800020E1F70895FB01DC014150504048F097
S1130E9001900D920020C9F701C01D9241505040AD
S1130EA0E0F70895FB0151915523A9F0BF01DC013E
S1130EB04D9145174111E1F759F4CD0101900020FE
S1130EC049F04D9140154111C9F3FB014111EFCF98
S1130ED081E090E001970895FB019F01E89442307E
S1130EE0C4F04532B4F44A3029F497FB1EF49095CB
S1130EF081959F4F642F77270E942407805D8A3352
S1130F000CF0895D8193CB010097A1F716F45DE2A3
S1130F1051931082C9010C948D07DC01FC01672FE9
S1130F2071917723E1F7329704C07C916D937083BC
S1110F306291AE17BF07C8F30895F894FFCF7F
S1130F3E41542B43495053544152543D225443502F
S1130F4E222C223139322E3136382E312E32222CA9
S1130F5E363030300D0A0020004F4B006E6F206388
S1130F6E68616E6765007265616479003E00415484
S1130F7E2B43494653520D0A0041503A0041504901
S1130F8E502C2200220041504D41432C2200535438
S1130F9E413A200053544149502C22005354414DA0
S1130FAE41432C220041542B5253540D0A004154F8
S1130FBE2B43574D4F44453D330D0A0041542B43AB
S1130FCE574A41503D2254452D4461746120322EBE
S1130FDE3447487A222C2244656C6C696E737069AE
S1130FEE726F6E3138220D0A0041542B4349504D15
S1130FFE55583D300D0A0041542B43575141500D65
S113100E0A0041542B43495053454E443D0041542C
S113101E2B434950434C4F53450D0A00526573748C
S113102E617274696E6720576966692E2E00506C62
S113103E6561736520576169742E2E00536574744F
S113104E696E67204D6F64652E2E00536574746946
S113105E6E6720436F6E656374696F6E00506C65C6
S113106E61736520776169742E2E003A0041542B0A
S113107E43495053454E443D320D0A000D0A00417A
S113108E542B43495053454E443D310D0A0044659B
S113109E6C6C696E737069726F6E31380054452DC5
S11310AE4461746120322E3447487A0004030201ED
S11310BE41542B43494653520041542B43495053F8
S11310CE45525645523D0041542B4349504D5558B7
S11310DE3D0041542B434950434C4F53453D004131
S11310EE542B43495053544152543D0041542B43C5
S11310FE49505354415455530041542B4357534173
S113110E503D0041542B43575141500041542B4301
S113111E574C41500041542B43574A41503D0041D6
S113112E542B43574D4F44453D0041542B52535479
S10D113E00000040001400540000FB
S9030000FC
